:020000040800F2
:1000000028090020C9130008CD010008CF0100080D
:10001000D3010008D7010008DB0100080000000040
:10002000000000000000000000000000DF010008E8
:10003000E101000800000000E3010008E5010008FC
:10004000E3130008E3130008E3130008E3130008B8
:10005000E3130008E3130008E3130008E3130008A8
:10006000E3130008E3130008E3130008E313000898
:10007000E3130008E3130008E3130008E313000888
:10008000E3130008E3130008E3130008E313000878
:10009000E3130008E3130008E3130008E313000868
:1000A000E3130008E3130008E3130008E313000858
:1000B000E3130008E3130008E3130008E313000848
:1000C000E3130008E3130008E3130008E313000838
:1000D000E3130008E9100008E3130008450E0008C8
:1000E000E3130008E3130008E3130008E313000818
:1000F000E3130008E3130008E3130008E313000808
:10010000E3130008E3130008E3130008E3130008F7
:10011000E3130008E3130008E3130008E3130008E7
:10012000E3130008E3130008E3130008E3130008D7
:10013000DFF80CD002F016FA00480047450100082D
:100140002809002000F00CFF4FF4A06001F04EF9E8
:100150004FF4E13000F07CFF00F000FB0B4800F0B2
:10016000E2FD0BA10DA000F036FA41F690710FA050
:1001700000F0CCF900231A460A2110A000F024F95F
:1001800002E0114800F0B7FDFBE70000E3060008BD
:1001900038383838383838380000000068656C6CFA
:1001A0006F2D657370383236360000003139322ECB
:1001B0003136382E312E31323300000041542B437A
:1001C000494653520D0A00003C020020704700BF10
:1001D000FEE700BFFEE700BFFEE700BFFEE7704797
:1001E00070477047704700000CB5002001900090E8
:1001F0006C48006840F480306A49086000BF694874
:10020000006800F4003000900198401C01900098B4
:1002100018B90198B0F5A06FF1D16248006800F4F8
:10022000003010B10120009001E000200090009803
:10023000012843D15C48006840F010005A4908602A
:100240000846006820F0030008600846006840F097
:1002500002000860534840685249486008464068B8
:1002600048600846406840F480604860084640683E
:1002700020F47C1048600846406840F4E81048606C
:100280000846006840F08070086000BF454800687C
:1002900000F000700028F9D04248406820F00300C8
:1002A000404948600846406840F00200486000BF8E
:1002B0003C48406800F00C000828F9D10CBD10B58E
:1002C000FFF792FF10BD10B53648006840F00100FE
:1002D000344908600846406834490840314948605C
:1002E00008460068324908402E4908600846006800
:1002F00020F4802008600846406820F4FE00486032
:100300004FF41F008860FFF7DAFF4FF000602949C3
:10031000086010BD10B5002100200022214B5B6851
:1003200003F00C0121B1042906D0082928D107E0E7
:10033000214B224C236027E01F4B204C236023E0FD
:10034000184B5B6803F47010164B5B6803F4803243
:10035000022303EB904022B9194B4343174C23600F
:100360000DE0104B5B6803F4003323B1144B43439F
:10037000124C236003E0104B4343104C236003E016
:100380000D4B0E4C236000BF00BF064B5B68C3F3F0
:1003900003130C4CE15C094B1B68CB40074C2360FA
:1003A00010BD000000100240002002400000FFF8D5
:1003B000FFFFF6FE08ED00E000127A0000000020CA
:1003C00000093D00040000202DE9F04F89B080466F
:1003D0008B4616469946202101A801F012FE002501
:1003E000002000908246B8F1000F02D0BBF1000F50
:1003F00004DC4FF0FF3009B0BDE8F08F59464046AD
:1004000000F08DFD002E3FD0304601F017FE04466F
:100410004FF0FF3000904FF0000A2CE0E14800F070
:1004200097FF002822DDC5F1200201A84119DD480F
:1004300000F0B8FE0746002F1DDD314601A801F08F
:10044000EBFD30B14146D8A002F09EF800200090AC
:1004500013E03D44A5420EDB01A84319601E191AA2
:10046000621E01A801F0B4FD651E04E0012000F049
:10047000B4FD0AF1010ACA45D0DB00BFCA4503DB5F
:100480004146D0A002F080F80098B4E770B590B073
:1004900004464021684601F0B4FD4021684601F061
:1004A000B0FD2346CDA2D0A1684602F07DF8684693
:1004B00001F0C4FD06464FF47A73CDA2314668467A
:1004C000FFF782FF0546284610B070BD70B590B0AA
:1004D00004464021684601F094FD4021684601F041
:1004E00090FD2346C3A2C0A1684602F05DF86846AD
:1004F00001F0A4FD06464FF47A73BDA2314668466A
:10050000FFF762FF0546284610B070BDF0B591B008
:1005100004460D46402101A801F073FD04B11DB948
:100520004FF0FF3011B0F0BD402101A801F069FD8E
:100530002346B3A2B5A101A802F036F801A801F044
:100540007DFD07464FF47A73A9A2394601A8FFF74B
:100550003BFF06460120FFF7B9FF402101A801F04B
:1005600050FD2B46ACA2B0A101A802F01DF801A8D5
:1005700001F064FD07464FF47A739DA2394601A845
:10058000FFF722FF06463C20FFF780FF0020A84926
:1005900048703046C6E770B590B0044640216846C2
:1005A00001F02FFD4021684601F02BFD2346A1A25A
:1005B0008DA1684601F0F8FF684601F03FFD064650
:1005C0004FF47A738AA231466846FFF7FDFE05466E
:1005D000284610B070BDF0B593B004460D464021DA
:1005E00003A801F00EFD1CB94FF0FF3013B0F0BDB1
:1005F0000220FFF7D0FF0646402103A801F001FDCD
:100600000320052123468EA2CDE9005102908FA13F
:1006100003A801F0C9FF03A801F010FD07464FF43D
:100620007A7373A2394603A8FFF7CEFE064630461A
:10063000DCE7F0B591B004460D46402101A801F079
:10064000E0FC0020FFF742FF06460320FFF7A3FF70
:100650000646402101A801F0D4FC234681A284A1D2
:1006600001A8009501F0A0FF642000F0B6FC84A072
:1006700001F08AFF01A801F0E1FC074642F2107385
:100680005BA2394601A8FFF79FFE0646304611B02F
:10069000F0BDF0B591B004460D46402101A801F02F
:1006A000B0FC402101A801F0ACFC234679A27EA158
:1006B00001A8009501F078FF7FA001F065FF01A877
:1006C00001F0BCFC074642F2107349A2394601A86A
:1006D000FFF77AFE0646012055494870304611B0B2
:1006E000F0BD70B592B005460C46402102A801F05D
:1006F00088FC402102A801F084FC4D48407838B9BC
:10070000002374A276A102A8009401F04DFF05E039
:10071000234670A234A102A801F046FF02A801F00E
:100720008DFC064600231A46314602A8FFF74CFE10
:100730000A2000F052FC2146284600F0F0FB20463B
:1007400012B070BD10B569A001F01EFF4FF4FA633E
:100750006BA208216CA0FFF737FE10BD10B534481E
:10076000002101804FF400726A490E4800F00EFE2D
:100770004FF4E13000F080FBFFF7E4FF4FF47A73B1
:100780001BA2062164A0FFF71FFE4FF47A7318A284
:10079000042163A0FFF718FE63A001F0F5FE00201E
:1007A00010BD70473C020020657370383236362029
:1007B00073657420257320737563636573732E0DE1
:1007C0000A0000006572726F723A2073657420250A
:1007D00073206661696C6564210D0A0041542B43E6
:1007E000495053544F00000025733D25640D0A0005
:1007F0004F4B000041542B4349504D5558000000C9
:1008000041542B43495041500000000025733D22C4
:100810002573220D0A00000041542B4349505345D3
:10082000525645523D31000025732C25640D0A00B7
:100830001400002041542B43574D4F444500000005
:1008400041542B43575341500000000025733D2273
:100850002573222C222573222C25642C25640D0A55
:100860000000000041542B43574A41500000000053
:1008700025733D222573222C222573220D0A0000A8
:10088000636F6E6E656374204150202E2E2E0D0A0C
:100890000000000041542B43495053544152543DF1
:1008A000225443502200000025732C222573222C51
:1008B00025640D0A00000000636F6E6E656374208E
:1008C00054435020736572766572202E2E2E0D0AC9
:1008D0000000000041542B43495053454E44000052
:1008E00025733D25642C25640D0A0000776966692F
:1008F000207265736574202E2E2E0D0A00000000F4
:10090000726561647900000041542B5253540D0A02
:10091000000000003C000020415445300D0A00005A
:1009200041540D0A00000000776966692065737004
:100930003832363620696E6974204F4B2E0D0A000E
:1009400070B505460E4600240FE0295DFBA001F0BE
:100950001BFE601CC11700EB5171C910A0EBC10157
:1009600011B9F8A001F010FE641CB442EDDBF5A053
:1009700001F00AFE70BD2DE9F05F05460E461746F0
:100980009B46DDF828800024A146A2460DB1002E2A
:1009900003DC4FF0FF30BDE8F09F2819D0F800903D
:1009A000241D4A46E849E9A001F0EEFD0024A246D4
:1009B0003819C0F800A0241DC8F800400020EAE75C
:1009C0002DE9F05F8046894615461F46DDF830B0B8
:1009D000DDF828A05646002405B12FB1BAF1000F6A
:1009E00002D0BBF1000F03D14FF0FF30BDE8F09F04
:1009F00005F10C000B99884208DD0346D749D8A0C1
:100A00000B9A01F0C1FD6FF00100EFE7FF2030709D
:100A1000641CE0A00068C6F80100241D86F805806B
:100A2000641C86F80690641CC6F80750241D2A46EC
:100A3000394606F10B0001F0CBFA2C44FE2105F1FA
:100A40000B003154641CCBF800400020CEE72DE9A8
:100A5000F04794B082460C4616469846DDF87090F2
:100A6000CCA103C9CDE90201BAF1000F06D02EB125
:100A7000B9F1000F02D0B8F10C0F04DA4FF0FF30DB
:100A800014B0BDE8F087D9F800502078D8B914E048
:100A9000012201A9504600F085FB9DF80400FF28C3
:100AA00006D19DF80400307001250120207009E076
:100AB0009DF80410B9A001F067FD504600F048FC15
:100AC0000028E5DC00BF207858B3607848BB22E0FE
:100AD000012201A9504600F065FB681E02A9085CCE
:100AE0009DF80410884208D19DF8040070556D1CD3
:100AF000052D10D10120607012E09DF80400FF2840
:100B000006D19DF80400307001250120207002E01C
:100B1000002500202070504600F01AFC0028D7DC89
:100B200000BF2078002864D06078002861D05AE0A7
:100B30000B2D2ADAC5F10B00402801D9402001E035
:100B4000C5F10B00024604A9504600F02BFB0746F6
:100B5000002F05DD70193A4604A901F039FA3D4429
:100B60000B2D40DBD6F8077007F10C00A060A068E1
:100B7000404538DD42468A498AA0A36801F004FD59
:100B8000002020606060A0602DE0A068401B40282D
:100B900001D9402001E0A068401B024604A950464C
:100BA00000F000FB0746002F1DDD70193A4604A92E
:100BB00001F00EFA3D44A068A84214D1681E305CD2
:100BC000FE2809D0764981A001F0DEFC00202060DB
:100BD0006060A06000250BE0C9F800500020206094
:100BE0006060A0604CE7504600F0B2FB00289FDC3C
:100BF00000BFC9F800504FF0FF3041E770B5044620
:100C0000DDE904561CB112B10BB105B116B94FF0B4
:100C1000FF3070BD0C2902DA6FF00100F9E760794E
:100C20001070A0791870D4F80700286028680C307C
:100C3000884202D04FF0FF30EBE72868002802DD41
:100C400004F10B0030600020E3E770B588B0064681
:100C50000C4600200790069005900490039005A88C
:100C600004A906AB07AACDE9001021463046FFF7DC
:100C7000C5FF05461DB14FF0FF3008B070BD0498A8
:100C8000234600909DF81C209DF818105AA001F0F2
:100C90007BFC9DF81800012804D0022803D003280B
:100CA0000DD101E00CE00BE003A84FF48073604A23
:100CB0000090DDE90410FFF75EFE054600E000BF8E
:100CC00000BFB5B90398002813DD04A84FF4807164
:100CD000584A574BCDE9002102909DF818109DF815
:100CE0001C00039AFFF76CFE5248534A049912689D
:100CF00090470020C1E77CB504464FF0FF350CB9A2
:100D000028467CBD01A84FF480734A4A4B490090A5
:100D10002046FFF79CFE05461DB946480199FFF79E
:100D200094FF0020EDE70146444800220260426043
:100D30008260414801600020704700002530325831
:100D4000200000000A0000008C2E000825733A20C5
:100D50007365712025640D0A00000000A22E0008B2
:100D60004552524F523A2025733A206F757462757E
:100D7000662073697A65205B25643A25645D206985
:100D800073206E6F7420656E6F7567682021212156
:100D90000A000000414243440000000025630000B7
:100DA000B62E00084552524F523A2025733A207011
:100DB00061636B206C656E5B25645D203E2062750F
:100DC000662073697A655B25645D0A002573203AA5
:100DD000207061636B657420646174612065727258
:100DE0006F722C206E6F206465746563742074616B
:100DF000696C210A0000000070746F746F20636DCD
:100E0000643A203078253032782C207365713A208E
:100E100025642C207061636B5F6C656E3A202564DD
:100E20002C20646174615F6C656E3A2025640A0051
:100E30005003002050020020180000205004002021
:100E40007047000008B540F225513F4801F07CF89A
:100E500088B13D4800F0F8FFC0B200903B4800F078
:100E600094F928B901226946384800F003FA02E0F3
:100E700037A001F089FB08BD10B586B004460121FA
:100E8000082000F03DFE0121880400F046FE2E48B7
:100E900000F09AFE4FF48060ADF8100003208DF84A
:100EA000120018208DF8130004A92C4800F06CFBE8
:100EB0004FF40060ADF8100004208DF8130004A971
:100EC000264800F061FB00940020ADF80400ADF866
:100ED0000600ADF80800ADF80C000C20ADF80A00D3
:100EE0006946194800F0B3FE0121174800F03BFFA6
:100EF000012240F22551144800F041FF27208DF8CF
:100F0000140002208DF8150003208DF81600012032
:100F10008DF8170005A800F06EFA06B010BD70B588
:100F200005460E4600240BE000BF4021064800F0B5
:100F3000F5FF0028F9D0295D034800F081FF641C0B
:100F4000B442F1DB70BD0000004800403C020020CC
:100F5000453A2066756C6C0D0A000000000C0140DB
:100F600010B56FF0040000F090FA2E4800682E498A
:100F7000B0FBF1F02D4908700846007800EB400105
:100F8000C1EBC0104FF6FF7101EAC000284908808C
:100F900010BD0146254A12784A434FF0E0235A61BA
:100FA00000229A611A46126942F001021A6100BFDA
:100FB0004FF0E022106900F001021AB100F4803213
:100FC000002AF5D04FF0E022126922F001024FF022
:100FD000E0231A6100229A6170470146144A128880
:100FE0004A434FF0E0235A6100229A611A4612697F
:100FF00042F001021A6100BF4FF0E022106900F0D8
:1010000001021AB100F48032002AF5D04FF0E0223C
:10101000126922F001024FF0E0231A6100229A6166
:10102000704700000000002000127A001C00002021
:101030001E00002000BF704700BF4A4A128802F01D
:101040004002002AF9D0C2B2464B1B1D1A807047DD
:1010500010B586B00446012144F2040000F050FDB2
:101060004FF40070ADF8140003208DF8160018201E
:101070008DF8170005A93C4800F086FA4FF480600F
:10108000ADF8140004208DF8170005A9364800F0CB
:101090007BFA25208DF8000003208DF801008DF8E3
:1010A000020001208DF80300684600F0A4F90194C5
:1010B0000020ADF80800ADF80A00ADF80C00ADF85E
:1010C00010000C20ADF80E0001A9264800F0BFFD6D
:1010D000012240F22551234800F051FE0121214810
:1010E00000F041FE06B010BD10B540F225511D487C
:1010F00000F02AFF10B31B4800F0A6FEC4B21B4844
:10110000008800F40040C8B91848008800F4804006
:1011100060B10A2C03D000201449088020E0134855
:10112000008840F400401149088019E00D2C06D1D8
:101130000E48008840F480400C49088010E00B48BD
:101140000088C0F30D000A490C5408480088401C70
:101150000649088008460088C72801DD002008806D
:1011600010BD0000003801400008014024000020AC
:101170005C040020014611B94FF0FF307047086948
:1011800008B90120FAE70020F8E7014611B94FF04D
:10119000FF3070474A680869904201D10120F8E7A2
:1011A0000020F6E72DE9F041044688461546002662
:1011B000002714B1B8F1000F03D14FF0FF30BDE8A4
:1011C000F081206908B90020F9E7D4E902018842DA
:1011D00016DDD4E90201401AA84201DB284602E0EC
:1011E000D4E90201401A0646E268206881183246B6
:1011F000404600F0EDFEE0683044E060374634E001
:10120000E1686068401AA84210DBE2682068811833
:101210002A46404600F0DCFEE0682844616890FB06
:10122000F1F201FB1200E0602F461EE0E168606809
:10123000461AE268206881183246404600F0C8FE2F
:101240000020E0603746E81BA168884201DCE81B0B
:1012500000E0A068064608EB07003246216800F06F
:10126000B7FEE0683044E06037442069C01B20616D
:101270003846A4E72DE9F041044688461546002784
:10128000002624B1B8F1000F01D0002D03DA4FF091
:10129000FF30BDE8F08161682069884200D00DB957
:1012A0000020F6E7D4E90201884235DBD4E90101E8
:1012B000401AA84210DBA268216888182A464146D5
:1012C00000F086FEA0682844616890FBF1F201FB03
:1012D0001200A0602E4636E0D4E90101471AA26848
:1012E000216888183A46414600F072FE0020A0604E
:1012F0003E44A81BE168884201DCA81B00E0E068CE
:10130000074608EB06013A46206800F061FEA06837
:101310003844A0603E4416E0D4E90210401A401E52
:10132000A84201DB284602E0D4E90210401A074631
:10133000A268216888183A46414600F049FEA06834
:101340003844A0603E462069304420613046A0E722
:10135000014611B94FF0FF3070470869FCE70146BC
:101360000A694868801A7047014611B94FF0FF308A
:1013700070474868FCE7014611B94FF0FF307047ED
:1013800000208860C860086100BFF8E770B50446B7
:101390000E46154614B10EB1002D02DC4FF0FF30A1
:1013A00070BD1421204600F02CFE266065600020F0
:1013B000F6E710B5044604B910BD1421204600F02C
:1013C00020FE00BFF8E700000648804706480047B7
:1013D000FEE7FEE7FEE7FEE7FEE7FEE7FEE7FEE7E5
:1013E000FEE7FEE7C702000831010008314901436A
:1013F000314A1160704770B5002100230F22C47874
:1014000004B32D4C246804F4E064C4F5E064210ABC
:10141000C1F10403CA40447804FA03F1847814400B
:1014200021430901254C0678A155047804F01F05D5
:101430000124AC4005786D11AD0005F1E025C5F83B
:10144000004109E0047804F01F050124AC401C4D64
:101450000678761145F8264070BD1A4A0A400243C4
:10146000154B1B1F1A60704739B1134A121D1268C1
:101470000243114B1B1D1A6006E00F4A121D126831
:1014800082430D4B1B1D1A607047042808D14FF092
:10149000E021096941F004014FF0E022116107E009
:1014A0004FF0E021096921F004014FF0E0221161C1
:1014B000704700000000FA050CED00E000E400E0D9
:1014C00080E100E080FFFF1F10B50446CC48844255
:1014D00008D10121042000F02DFB0021042000F0A0
:1014E00029FB46E0C748844208D10121082000F0CA
:1014F00021FB0021082000F01DFB3AE0C248844295
:1015000008D10121102000F015FB0021102000F06F
:1015100011FB2EE0BD48844208D10121202000F0BB
:1015200009FB0021202000F005FB22E0B84884429E
:1015300008D10121402000F0FDFA0021402000F0F8
:10154000F9FA16E0B348844208D10121802000F066
:10155000F1FA0021802000F0EDFA0AE0AE48844262
:1015600007D10121801500F0E5FA0021A01500F057
:10157000E1FA10BD10B50121084600F0DBFA0021A8
:10158000012000F0D7FA10BD2DE9F04102460025F8
:101590000026002000230024002791F803C00CF04F
:1015A0000F0591F803C00CF0100CBCF1000F03D034
:1015B00091F802C04CEA050591F800C0BCF1000F9B
:1015C00031D0146800202BE04FF0010C0CFA00F32E
:1015D000B1F800C00CEA03069E4220D183004FF010
:1015E0000F0C0CFA03F7BC4305FA03FC4CEA0404A5
:1015F00091F803C0BCF1280F06D14FF0010C0CFA92
:1016000000FCC2F814C00AE091F803C0BCF1480F16
:1016100005D14FF0010C0CFA00FCC2F810C0401CC0
:101620000828D1D31460B1F800C0BCF1FF0F34DD3D
:10163000546800202EE000F1080C4FF0010808FA71
:101640000CF3B1F800C00CEA03069E4221D18300DE
:101650004FF00F0C0CFA03F7BC4305FA03FC4CEAFD
:10166000040491F803C0BCF1280F05D100F1080C67
:1016700008FA0CF8C2F8148091F803C0BCF1480FC6
:1016800007D100F1080C4FF0010808FA0CF8C2F875
:101690001080401C0828CED35460BDE8F0814FF67E
:1016A000FF710180022181700421C17070470246E0
:1016B000002093680B400BB1012000E00020704730
:1016C0000146886880B2704702460020D3680B400C
:1016D0000BB1012000E0002070470146C86880B2CD
:1016E000704701617047416170470AB1016100E0D4
:1016F00041617047C16070474FF480320A43826194
:101700008161826182698269704702460020434B91
:1017100018684FF68073184040EA021008433F4BA8
:10172000186070473E49C8617047F0B50A4600230B
:1017300000240021002500F00046B6F1004F02D140
:10174000364EF16901E0354E7168C0F3034583B24E
:1017500000F44016B6F5401F08D121F070612F4EFD
:10176000766826F070662D4F7E6012E000F48016D9
:10177000B6F5801F06D1032606FA05F4A14341F011
:10178000706106E0460D360103FA06F6B14341F0FA
:10179000706122B1460D360103FA06F6314300F0BE
:1017A0000046B6F1004F02D11C4EF16101E01B4E24
:1017B0007160F0BD30B500228B071C0F0F2303FAB8
:1017C00004F2164B08338C1053F824309343134C17
:1017D00008348D1044F8253023468C1053F82430FB
:1017E0008C07240F00FA04F423430C4C08348D10AA
:1017F00044F8253030BD0A49DC31086070470000EC
:1018000000080140000C014000100140001401409C
:1018100000180140001C0140002001400000014070
:1018200000002042DF48006840F00100DD49086008
:1018300008464068DC490840DA49486008460068C4
:10184000DA490840D74908600846006820F480203B
:1018500008600846406820F4FE0048604FF41F000E
:1018600088607047CF49096821F48031CD4A116002
:101870001146096821F480211160B0F5803F03D042
:10188000B0F5802F0ED106E0C649096841F48031D9
:10189000C44A116007E0C349096841F4A021C14A64
:1018A000116000E000BF00BF704710B50146002284
:1018B000002300204A11012A02D1BA4C236806E015
:1018C000022A02D1B74C236A01E0B64C636A01F0E8
:1018D0001F02012494401C400CB1012000E00020B4
:1018E00010BD38B5002000900024002500BF312035
:1018F000FFF7DBFF05460098401C00900098B0F50C
:10190000A06F01D0002DF2D03120FFF7CEFF08B13B
:10191000012400E00024204638BD01460020A14AF1
:10192000106820F0F80040EAC10010607047A0493C
:1019300008607047024600209A4B586820F47C10DB
:1019400042EA01031843974B58607047984908666C
:10195000704701460020934A506820F00300084376
:10196000506070478F48406800F00C007047014697
:1019700000208C4A506820F0F00008435060704707
:1019800001460020874A506820F4E0600843506018
:10199000704701460020834A506820F4605040EAB6
:1019A000C1005060704729B17E4A527A02437D4B94
:1019B0005A7204E07B4A527A82437A4B5A727047D9
:1019C0007B49D8310860704701460020754A50684D
:1019D00020F440400843506070470021714A203293
:1019E0001170704A82F82010012802D004280AD110
:1019F00004E001216B4A2032117005E00521694A9B
:101A00002032117000E000BF00BF704769490860D4
:101A100070476449096A0143624A11627047654927
:101A200044390860704730B50021002200240023AB
:101A30005C4D6D6805F00C0121B1042905D0082921
:101A400023D105E05C4D056022E05B4D05601FE0A1
:101A5000544D6D6805F47012524D6D6805F4803474
:101A6000022505EB92421CB9544D554305600BE02D
:101A70004C4D6D6805F400351DB1504D5543056062
:101A800002E04D4D5543056002E04B4D056000BF3F
:101A900000BF444D6D6805F0F0010909484D6B5CCD
:101AA0000568DD4045603F4D6D6805F4E061090A59
:101AB000434D6B5C4568DD4085603A4D6D6805F4CB
:101AC0006051C90A3E4D6B5C4568DD40C560354DCF
:101AD0006D6805F44041890B3A4D6B5CC568B5FBF8
:101AE000F3F5056130BD29B12E4A526902432D4BF1
:101AF0005A6104E02B4A526982432A4B5A6170476B
:101B000029B1284A92690243264B9A6104E0254A8A
:101B100092698243234B9A61704729B1214AD26965
:101B20000243204BDA6104E01E4AD26982431D4B16
:101B3000DA61704729B11B4AD2680243194BDA6057
:101B400004E0184AD2688243164BDA60704729B124
:101B5000144A12690243134B1A6104E0114A1269D4
:101B60008243104B1A617047124940390860704730
:101B70000F49C86470470B49C87170470948406AEB
:101B800040F0807007494862704701460020054ACE
:101B900092680A400AB1012000E000207047014924
:101BA00088727047001002400000FFF8FFFFF6FE49
:101BB000000042428004424200127A0000093D00C7
:101BC000260000203600002010B50446FB48844261
:101BD00009D101218803FFF7ADFF00214FF48040B8
:101BE000FFF7A8FF32E0F648844209D101214804FA
:101BF000FFF7ADFF00214FF40030FFF7A8FF25E00D
:101C0000F048844209D101218804FFF7A0FF002198
:101C10004FF48020FFF79BFF18E0EB48844209D186
:101C20000121C804FFF793FF00214FF40020FFF7C4
:101C30008EFF0BE0E548844208D101210805FFF73B
:101C400086FF00214FF48010FFF781FF10BD2DE9C2
:101C5000F04786B005460E460024A24600BFA146C6
:101C60000027B08900B100BF2F462C8A4CF6FF70C8
:101C70000440F08804432C82AC894EF6F3100440F3
:101C8000B08831890843718908430443AC81AC8A28
:101C90004FF6FF400440B0890443AC8201A8FFF72F
:101CA000C2FEC648874202D1DDF810A001E0DDF88F
:101CB0000CA0A88900F4004040B10AEBCA0000EB78
:101CC0000A1031684900B0FBF1F807E00AEBCA00DE
:101CD00000EB0A1031688900B0FBF1F86420B8FB12
:101CE000F0F004012009642101FB1089A88900F4A7
:101CF000004040B1322000EBC900B0FBF1F000F031
:101D00000700044308E0322000EB09106421B0FB17
:101D1000F1F000F00F0004432C8106B0BDE8F0871D
:101D20004FF41651016000218180C18001810C2196
:101D3000418100218181704710B502460020108A40
:101D40004FF2FF0318400B884C8823438C882343B1
:101D5000CC8823431843108210BD002101804180AC
:101D60008180C180704721B1828942F40052828112
:101D700004E082894DF6FF731A4082817047F0B506
:101D80000346002400260025002040F66A17B942C9
:101D900000D100BF1846C1F3421401F01F0601270D
:101DA00007FA06F5012C01D10C3004E0022C01D118
:101DB000103000E014301AB107682F43076002E0CA
:101DC0000768AF430760F0BD1AB1838A0B43838273
:101DD00002E0838A8B4383827047028A4FF6F07356
:101DE0001A400282028A0A430282704782894FF2B5
:101DF000FF731A40828182890A438281704721B130
:101E0000828942F00202828104E082894FF6FD73EA
:101E10001A4082817047028A4FF6DF731A400282AD
:101E2000028A0A430282704721B1028A42F4804248
:101E3000028204E0028A4BF6FF731A400282704766
:101E4000C1F308028280704701468888C0F3080009
:101E50007047818941F0010181817047028BD2B2C4
:101E60000283028B42EA012202837047028B02F452
:101E70007F420283028B0A430283704721B1828A28
:101E800042F02002828204E0828A4FF6DF731A4019
:101E90008282704721B1828A42F01002828204E07D
:101EA000828A4FF6EF731A408282704721B1828A8C
:101EB00042F00802828204E0828A4FF6F7731A40E9
:101EC0008282704721B1828942F40042828103E01C
:101ED0008289C2F30E028281704721B1828A42F464
:101EE0000062828204E0828A4FF2FF731A4082828B
:101EF0007047828A4FF6FB731A408282828A0A43B5
:101F00008282704721B1828A42F00202828204E01A
:101F1000828A4FF6FD731A40828270470246002083
:101F2000B1F5007F00D100BF13880B400BB1012039
:101F300000E00020704701F40072B2F5007F00D18C
:101F400000BFCA430280704770B5024600240023D8
:101F50000025002040F66A16B14200D100BFC1F34F
:101F6000421501F01F03012606FA03F3012D02D1E9
:101F70009689334006E0022D02D1168A334001E0F3
:101F8000968A33400C12012606FA04F4168834406F
:101F900013B10CB1012000E0002070BD10B500228B
:101FA000002340F66A14A14200D100BF0A120124A6
:101FB0009440A3B2DC43048010BD0000003801400F
:101FC0000044004000480040004C004000500040E9
:101FD00040EA01039B0703D009E008C9121F08C0AB
:101FE000042AFAD203E011F8013B00F8013B521E2B
:101FF000F9D27047D2B201E000F8012B491EFBD2A2
:1020000070470022F6E710B513460A460446194603
:10201000FFF7F0FF204610BD30B505462A460B46B7
:1020200012F8010B13F8014B08B1A042F8D01CB113
:10203000002802D06D1CF1E7284630BD421C10F884
:10204000011B0029FBD1801A70472DE9FE4F804605
:1020500081EA0300C00F0C46009021F0004123F0FC
:102060000045B8EB0200A94105D240462146904602
:102070001C460B46024623F00040104347D0270D74
:10208000C7F30A00C3F30A510290401A0190402896
:102090006BDAC3F3130040F4801B0098924620B122
:1020A0000023D2EB030A63EB0B0B01985946C0F1F6
:1020B0004002504600F041F906460D46504659464A
:1020C000019A00F059F910EB08006141002487EAF9
:1020D000115284EAE7731A4340D0009A62B3019A1E
:1020E000012A4FEA075215DC001B61EB02014FF099
:1020F000004202EA0752CDE90042001C41F580117E
:1021000032462B4600F059F903B0BDE8F08F404647
:102110002146F9E7001B61EB0201001C41F5801329
:1021200000185B412018A2F5001747EB030140EAB5
:10213000D570B6196D4111E06D084FEA360645EAD3
:10214000C0754FEA0752001B61EB0201001C41F50C
:10215000801149084FEA30000019514132462B46A0
:1021600003B0BDE8F04F00F019B90098012240001B
:102170000023D0EB020263EBE073009821464FEAA4
:10218000E074B8EB000061EB0401E9E783F0004381
:102190005BE781F0004158E72DE9FE4F81EA030437
:1021A00004F0004421F0004100944FF0000B23F0B4
:1021B000004350EA01045ED052EA03045BD0C3F34B
:1021C0000A54C1F30A552C44A4F2F3340194A0FB41
:1021D0000254C1F3130141F48011C3F3130343F418
:1021E000801301FB024400FB034E840A970A44EA71
:1021F000815447EA8357A4FB076802958D0A05FBC3
:1022000007854FEA932C04FB0C542705029D4FEAE7
:10221000065847EA1637B5EB08056EEB070C870E34
:10222000920E47EA811742EA8312A7FB0201B6EB3E
:102230000B0164EB00042B0D43EA0C335E1844EBF6
:102240001C50DA465146E7FB0201C5F313044FEA7E
:102250000B3343EA14534FEA0432019C43EA06036A
:10226000A4F10C040294009CCDE900B400F0A5F8A0
:1022700003B0BDE8F08F00200146F9E730B5041E39
:1022800071F1000404DB4FF00044404264EB0101B3
:10229000141E73F1000405DB1C464FF0004352424C
:1022A00063EB0403994208BF904230BD30B50B4642
:1022B000014600202022012409E021FA02F59D4276
:1022C00005D303FA02F5491B04FA02F52844151E4A
:1022D000A2F10102F1DC30BD2DE9F05F05460020DE
:1022E00092469B4688460646814640241BE0284687
:1022F00041464746224600F02FF853465A46C01A38
:10230000914110D311461846224600F016F82D1AB6
:1023100067EB01084F4622460120002100F00DF82E
:1023200017EB00094E41201EA4F10104DFDC4846F2
:1023300031462A464346BDE8F09F202A04DB203A76
:1023400000FA02F1002070479140C2F1200320FA08
:1023500003F3194390407047202A04DB203A21FA06
:1023600002F00021704721FA02F3D040C2F12002AE
:102370009140084319467047202A06DBCB17203AC4
:1023800041FA02F043EAE07306E041FA02F3D0407A
:10239000C2F12002914008431946704710B5141E3F
:1023A00073F1000408DA401C41F1000192185B410E
:1023B0001A4301D120F0010010BD2DE9F04D9246E5
:1023C0009B4611B1B1FA81F202E0B0FA80F22032FC
:1023D0009046FFF7B2FF04460F4640EA0A0041EA82
:1023E0000B0153465A46084313D0114653EA0100E5
:1023F00019D0C8F140025046FFF7AEFF05460E4621
:10240000504659464246FFF798FF084305D0012041
:1024100004E020463946BDE8F08D0020054346EA39
:10242000E0762C4337430A986305E40AA0EB0800E2
:102430000022FD0A44EA47540A3002D50020014632
:10244000E9E7010510196941DDE90845001969410D
:10245000BDE8F04DA2E72DE9F04D81EA030404F058
:10246000004B21F0004514464FF0000A23F00041D4
:1024700050EA050220D054EA01021DD0C5F30A57E4
:102480000246C5F31303C1F31300C1F30A5640F427
:10249000801543F48013A7EB0608101BD64608F2FC
:1024A000FD3873EB050002D308F1010801E0921832
:1024B0005B41B8F1000F03DA00200146BDE8F08D62
:1024C00000204FF48011064684460EE0171B73EB84
:1024D000050705D3121B63EB050306434CEA010C09
:1024E00049084FEA300092185B4150EA0107EDD1EC
:1024F00052EA030012D082EA040083EA050108438D
:1025000005D0101BAB4106D20122002306E00022B9
:102510004FF0004302E06FF0010253101AEB060087
:102520004CEB085110EB0A0041EB0B01BDE8F04DFC
:10253000FFF734BFC1F30A52C1F3130140F2FF3376
:1025400041F480119A4202DA00200146704740F2BD
:1025500033439A42A2F2334202DC5242FFF7FCBEFE
:10256000FFF7EBBE064C074D06E0E06840F00103C4
:1025700094E8070098471034AC42F6D3FDF7DCFD31
:10258000CC2E0008EC2E00080FB4054B10B503A9A3
:10259000044A029800F0DEF810BC5DF814FB00005D
:1025A00039100008200000200FB4084B10B504A912
:1025B00002AA039800F0CEF8044602A9002000F019
:1025C00060FC204610BC5DF814FB0000832E000860
:1025D00002E008C8121F08C1002AFAD170477047EC
:1025E000002001E001C1121F002AFBD1704700004A
:1025F0002DE9FF5FDDE90220010DDDF838B002436F
:1026000018D044F61050A1F2FF3141430D140F9839
:10261000012820D0A5EB0B00401C5FEA000A4FF018
:102620000004474EDFF81C91A046504616D5CAF16B
:10263000000728E00F98012443A2012808D00021B8
:1026400000980F9BC0E90021C0E90243BDE8FF9F4D
:102650006FEA0B01F4E7CBF10000DEE7074612E07A
:10266000F80707D02246334640464946FFF794FD17
:10267000804689462246334610461946FFF78CFDB0
:1026800004460E467F10002FEAD1DDE90201BAF1BF
:10269000000F42464B4602DAFFF77EFD01E0FFF7EE
:1026A000DAFE04460E460022284BFFF7E7FD03D86A
:1026B0004FF0FF30014607E00022254B204631460F
:1026C000FFF7C3FCFFF736FF102409E0002C0ADBFC
:1026D0000A220023FFF700FE019B30321A55641EC8
:1026E00050EA0102F2D1641C019AC4F111031444AE
:1026F0000F9A012A03D0012208430DD10AE00843B2
:1027000004D000204FF0110B0F9080E7A3EB0B05D6
:102710006D1E0DE05B4504DD4FF0000205F1010583
:1027200004E003DA4FF00002A5F10105002AECD025
:1027300000980F99C0E90231C0E9004586E7000022
:10274000000024400000F03F300000000000F04393
:102750000000E03F2DE9FF4F95B09B4689460646B5
:1027600000250FE2252877D100242746F84A0121C9
:10277000059400E0044316F8013F203B01FA03F002
:102780001042F7D130782A2811D06FF02F0330781B
:10279000A0F13002092A16D8059A44F0020402EB8F
:1027A000820203EB42021044761C0590EFE759F8D1
:1027B000042B0592002A03DA504244F40054059099
:1027C00044F00204761C30782E2816D116F8010F3A
:1027D00044F004042A280DD06FF02F023078A0F1C5
:1027E0003003092B09D807EB870302EB4303C71813
:1027F000761CF3E759F8047B761C30786C280FD0F0
:1028000006DC4C2817D068280DD06A2814D104E0C3
:10281000742810D07A280FD10DE044F400140AE097
:1028200044F4801401E044F440147278824202D1EE
:1028300004F58014761C761C307866280BD013DCE7
:10284000582877D009DC002875D04528F6D04628CE
:10285000F4D047281AD19DE118E0632835D06428C8
:1028600079D0652812D195E1702873D008DC6728EB
:10287000F1D069286FD06E280DD06F2806D1B5E051
:1028800073282CD0752875D0782874D05A4617999B
:1028900090476D1C75E1C4F30250022809D003284B
:1028A0000DD0D9F8001004280DD00D6009F10409ED
:1028B00067E1D9F80010EA17C1E90052F6E7D9F844
:1028C00000100D80F2E70D70F0E719F8041B8DF889
:1028D000001000208DF80100EA46012003E059F8BD
:1028E00004AB4FF0FF3061074FF0000102D40DE060
:1028F00008F101018846B9420FDA8045F8DB1AF881
:1029000008100029F4D108E008F10101884681424D
:10291000FADB1AF808100029F6D105985B46A0EBFF
:10292000080721463846179A00F094FA284400EB2D
:10293000080507E04DE029E10DE01AF8010B5A46C1
:1029400017999047B8F10108F7D25B4621463846FF
:10295000179A13E142E00A220092C4F302524FF0A8
:10296000000A022A08D059F804CB032A4FEAEC7176
:102970000AD00DE029E02AE009F1070121F0070261
:10298000F2E802C1914609E00FFA8CFC4FEAEC71C3
:10299000042A03D14FFA8CFC4FEAEC71002907DAC4
:1029A0000A460021DCF1000C61EB02012D2202E05D
:1029B000220504D52B228DF80420012203E0E20732
:1029C00001D02022F7E7904659E00A2102E01022C8
:1029D0000DE010214FF0000A00910BE010224FF0A3
:1029E000000A44F004040827009203E008224FF094
:1029F000000A0092C4F30252022A05D059F804CB0F
:102A00000021032A08D009E009F1070121F007029B
:102A1000F2E802C1914605E01FFA8CFC042A01D1BC
:102A20000CF0FF0C4FF00008220728D5702806D0C4
:102A3000009B83F0100353EA0A0305D00EE0402206
:102A40008DF80420012208E05CEA010206D0302261
:102A50008DF804208DF8050002229046009B83F03B
:102A6000080353EA0A030AD15CEA010201D16207B2
:102A700005D530228DF804204FF001087F1E58281C
:102A800004D034A003900EA802900DE036A0F9E720
:102A900053466046009AFFF71FFC84460398825C09
:102AA0000298401E029002705CEA0100F0D1029888
:102AB00006A9081A00F1200A600702D524F4803420
:102AC00000E00127574502DDA7EB0A0000E00020E7
:102AD00000EB0A01009005984144401A0590E0037C
:102AE00006D45B462146179A059800F0B3F90544D1
:102AF000002706E001A85A46C05D179990476D1C53
:102B00007F1C4745F6DBE0030CD55B462146179A50
:102B1000059800F09FF9054404E030205A461799C3
:102B200090476D1C0099481E00900029F5DC08E0D4
:102B3000029802995A460078491C029117999047C9
:102B40006D1CBAF10001AAF1010AF1DC65E1000097
:102B50000928010030313233343536373839616273
:102B60006364656600000000303132333435363737
:102B700038394142434445460000000000F058F90E
:102B80000544761C307800287FF4ECAD19B0284657
:102B9000BDE8F08F620700D4062709F1070222F092
:102BA000070CFCE80223E14603F000485FEA080C4A
:102BB00002D00FF2702C0DE05FEA045C02D50FF238
:102BC000682C07E05FEAC47C02D00FF2602C01E0C1
:102BD000AFF2700C4FF0FF3823F00043CDF850C037
:102BE00065280CD006DC452809D046281DD047288A
:102BF0003DD13DE0662818D067287ED138E000211D
:102C0000112F01DB112000E0781CCDE9000106A99D
:102C10000EA8FFF7EDFCDDE90F010E9A03910021EC
:102C2000009207F1010A04914DE04FF00040009737
:102C3000CDE9011006A90EA8FFF7DAFCDDE90F02C5
:102C400003920E9B11990022DDF80CA000930492D0
:102C500011B9791C00EB010AB7EB0A0004D4C0F1EA
:102C6000FF3007F1010A0490AAEB0700019044E04D
:102C7000012F00DA01270021112F01DD112000E0D2
:102C80003846CDE9000106A90EA8FFF7B1FCDDE941
:102C90000F010E9A0391002104910092BA46210778
:102CA0000CD40399514500DA8A46BAF1010F05DDCB
:102CB000009AAAF10101515C302908D0B84202DA29
:102CC00010F1040F06DA0121CDE9011015E0AAF197
:102CD0000101E9E7002805DC049901440491AAEB0D
:102CE000000102E0411C514500DD8A460499401A6A
:102CF000401C01904FF000400290200704D401983E
:102D0000504501DBCDF8048000208DF84F0002987B
:102D10000DF14F07B0F1004F25D02B200E900298F7
:102D20004FF0020800280CDA404202902D200E904D
:102D300007E00A210298FFF7B9FA3031029007F84C
:102D4000011DB8F10001A8F10108F2DC0298002889
:102D5000EFD1791E0E980870307800F0200040F016
:102D6000450007F8020D12A8C01B00F107081498CF
:102D7000007800B1012000EB0A01019801EBE0713D
:102D800005984144401A401E0590E00306D45B4676
:102D90002146179A059800F05DF8054414980078CC
:102DA00018B15A46179990476D1CE00324D55B462D
:102DB0002146179A059800F04DF805441CE0049848
:102DC000002807DBDDE90301884203DD0098405C51
:102DD000179901E0179930205A469047049805F159
:102DE0000105401C04900198401E019004D12E2042
:102DF0005A46179990476D1CBAF10001AAF1010AD1
:102E0000DDDC05E017F8010B5A46179990476D1C59
:102E1000B8F10001A8F10108F4DC5B462146179ADD
:102E20000598ABE62D0000002B00000020000000FC
:102E30002DE9F041044600251E461746880404D4B7
:102E400005E039462020B0476D1C641EF9D52846A0
:102E5000BDE8F0812DE9F041044600251E4690466C
:102E6000C80301D5302700E02027880404D505E0F9
:102E700041463846B0476D1C641EF9D52846BDE86A
:102E8000F0810A68531C0B6010707047736572768E
:102E900065725F307830335F686561727462656156
:102EA000740070726F746F5F6D616B6575705F70C9
:102EB00061636B65740070726F746F5F7061636BD8
:102EC00065745F646574656374000000EC2E00082F
:102ED000000000203C000000D0250008282F00083A
:102EE0003C000020EC080000E025000800A24A0495
:102EF00000000000000000000102030406070809AA
:102F000000000000000000000000000000000000C1
:102F10000000000000000102030401020304060790
:082F2000080902040608000084
:0400000508000131BD
:00000001FF
